:100000008000780079007A007B001116112B1148CE
:100010001165118280F4901000E0F8902000E0F962
:10002000903000E0FA904000E0FB22E875F00A848E
:0F003000F53185F03090009F93908000F0E5F05F
:10003F0090009F93908100F022E975F00A84F533C8
:10004F0085F03290009F93908200F0E5F090009F32
:10005F0093908300F022EA75F00A84F53585F03429
:0E006F0090009F93908400F0E5F090009F9326
:0F007D00908500F022EB75F00A84F53785F03698
:0E008C0090009F93908600F0E5F090009F9307
:0F009A00908700F0223F065B4F666D7D077F6FFA
:00000001FF
