:0F000000116B1185740011917590FF787F112796
:0F000F00E59044FFB4FF0280F5E59011331160D6
:10001E00E59044F0B4FFF980E1E8F5900330E30297
:10002E00F822787F22900050F540E4FF93B540030C
:0F003E00EF8004EF0480F4B40A0040022407C3EB
:10004D00243022D7EEDEBEEDDDBDEBDBBB7E7D7B4E
:10005D0077E7B7C2B3D2B4D2B2F5A0C2B222C2B35F
:10006D00C2B4D2B275A038C2B2D2B275A00EC2B2AD
:0E007D00D2B275A006C2B222C2B3C2B4D2B2D1
:10008B0075A001C2B222C2B3C2B4D2B22480F5A011
:03009B00C2B222CC
:00000001FF
