:02000000801668
:0300030002018077
:0F000B00C2AF758CFF758A9CB2B6D2AF32D2AF3E
:0F001A00D2A9D2A8D288758CFF758A9C758901EE
:10002900D28C11A611C0740011CC75300075310045
:0F003900780079009000003187115111E4317582
:1000480011C0740011CC0980EFE8B40005753000C8
:10005800804BB417057530018043B42E0575300206
:10006800803BB445057530038033B45C05753004B6
:10007800802BB473057530058023B48A0575300666
:10008800801BB4A1057530078013B4B80575300816
:10009800800BB4CF05753009800375300A22C2B4CD
:1000A800C2B4D2B275A038C2B2D2B275A00EC2B272
:0E00B800D2B275A006C2B222C2B4C2B4D2B295
:1000C60075A001C2B222C2B4C2B4D2B22480F5A0D5
:1000D600C2B222C2B4D2B4D2B2F5A0C2B22274560F
:1000E60011D9744111D9744C11D9744F11D9745264
:1000F60011D9742011D9744111D9744E11D9744192
:1001060011D9744C11D9744F11D9744711D9744946
:1001160011D9744311D9744F11D9742011D974446B
:1001260011D9744111D9742011D9745411D9744557
:1001360011D9744E11D9745311D9744111D9744F10
:1001460011D9742011D9744E11D9744F11D9742054
:1001560011D9745311D9744511D9744E11D97453E8
:1001660011D9744F11D9745211D9742011D922E9B9
:1001760011D9743D11D9E811D922C2AFA890D2AFD6
:0C01860032B908057900900000A3F022B7
:00000001FF
