:0200000080146A
:02000B00806D06
:0F001300118732D2AFD2AAD28A780079007A0050
:0F00220075300075310075320075330075A00020
:0F00310075A0001136900058BA0304E533801211
:10004000BA0204E532800BBA0104E5318004E530E0
:10005000800093F5901162223F065B4F666D7D072D
:0E0060007F6FBA0303D2A322BA0203D2A222F8
:10006E00BA0103D2A122BA00C9D2A022C2AF7831FE
:10007E00758CFF758AFFD2AF32300005C20074C88E
:04008E0022D2002258
:00000001FF
