:10000000117A1194740011A090006EE493B4000270
:10001000800511ADA380F411E63104744011A0E90C
:0F002000B4003A75302BE820E029753530C31352
:10002F0011B8E53011ADE53111ADE53211ADE53364
:10003F0011AD742E11ADE53511AD74DF11AD7443F3
:0E004F0011AD80C675353580D5753535800A02
:0F005D0075302DE820E0F4753530D313F424010D
:10006C0080C154454D504552415455524100C2B483
:10007C00C2B4D2B275A038C2B2D2B275A00EC2B29E
:0E008C00D2B275A006C2B222C2B4C2B4D2B2C1
:10009A0075A001C2B222C2B4C2B4D2B22480F5A001
:0E00AA00C2B222C2B4D2B4D2B2F5A0C2B22207
:1000B800B464004009946411CD7B0111D72211CD9D
:1000C8007B0011D72275F00A84FAA9F0C44922EB03
:1000D8002430F531EA2430F532E92430F533740A56
:1000E80011EF74EE11EF22C290D2907F081392B0F4
:1000F80011FDDFF922D2B1C2B1D2B12274AA11EF37
:0F0108003114F89200A92074EE11EF22E4D2B066
:10011700D2907F09D2B1C2B1A2B0D2B113DFF53309
:0101270022B5
:00000001FF
